:020000040000FA
:100000000C94AD000C94D5000C94D5000C94D50044
:100010000C94D5000C94D5000C94D5000C94D5000C
:100020000C94D5000C94D5000C94D5000C94D500FC
:100030000C94D5000C94D5000C94D5000C94D500EC
:100040000C94E9070C94D5000C94D5000C94D500C1
:100050000C94D5000C94D5000C94D5000C94D500CC
:100060000C9433080C94D500036EDB363D9A9999B5
:10007000993DABAAAA2A3E000000803F084AD73B20
:100080003BCE016E84BCBFFDC12F3D6C74319ABD67
:1000900056833DDA3D00C77F11BED9E4BB4C3E918B
:1000A0006BAAAABE000000803F072C7AA5BA6CC5D7
:1000B00090DA3B9365FC8BBC53F810FD3C56928361
:1000C0004DBD879D3AB63DCBC9BF5BBE73DA0FC944
:1000D0003F05A84CCDB2D44EB93836A9020C50B960
:1000E000918688083CA6AAAA2ABE000000803F0686
:1000F00064EC1B3C04BC163E3BE5B93CC93C37C232
:100100009E5A3D660498083EEA69AAAA3E0000008D
:10011000803F00000000250028002B000404040498
:1001200004040404020202020202030303030303A1
:10013000010204081020408001020408102001027E
:10014000040810200000000800020100000304075A
:100150000000000000000000520911241FBECFEF74
:10016000D8E0DEBFCDBF22E0A6EAB1E001C01D921B
:10017000A03CB207E1F711E0A0E0B1E0EAE9FAE261
:1001800002C005900D92A63AB107D9F710E0CDEA6A
:10019000D0E004C02197FE010E942014CC3AD10780
:1001A000C9F70E9485090C944B150C940000E0914E
:1001B000AA02F091AB02F093AD02E093AC02809101
:1001C000AE029091AF02892B09F010820895089534
:1001D000089590E0FC01EC5BFE4F2491FC01E05D92
:1001E000FE4F3491FC01E45EFE4FE491EE23C9F032
:1001F000222339F0233001F1A8F4213019F1223003
:1002000029F1F0E0EE0FFF1FEE5EFE4FA591B491D5
:100210008FB7F894EC91611126C030953E233C9342
:100220008FBF08952730A9F02830C9F0243049F74E
:10023000809180008F7D03C0809180008F778093B4
:100240008000DFCF84B58F7784BDDBCF84B58F7D11
:10025000FBCF8091B0008F778093B000D2CF809198
:10026000B0008F7DF9CF3E2BDACF3FB7F894809165
:100270000D0290910E02A0910F02B091100226B5CE
:10028000A89B05C02F3F19F00196A11DB11D3FBFCE
:10029000BA2FA92F982F8827BC01CD01620F711D9D
:1002A000811D911D42E0660F771F881F991F4A9597
:1002B000D1F708958F929F92AF92BF92CF92DF9223
:1002C000EF92FF924B015C010E9435016B017C01B2
:1002D0000E9435016C197D098E099F09683E7340A3
:1002E00081059105A8F321E0821A9108A108B108BF
:1002F00088EEC80E83E0D81EE11CF11C8114910425
:10030000A104B10429F7FF90EF90DF90CF90BF9048
:10031000AF909F908F900895AF92BF92CF92DF924F
:10032000EF92FF920F931F93CF93DF936C017B01AA
:100330008B01040F151FEB015E01AE18BF08C0173B
:10034000D10759F06991D601ED91FC910190F081AE
:10035000E02DC6010995892B79F7C501DF91CF9171
:100360001F910F91FF90EF90DF90CF90BF90AF90D3
:100370000895FC01A681B7819D012F5F3F4F8481C5
:10038000958140855185840F951F2817390750F4B2
:10039000378326836C930680F781E02D108281E0FD
:1003A00090E0089590E080E00895FC0190819053E2
:1003B0009A3008F090E0818180532AE0929F800D6E
:1003C000112408952091C701260F3327331F2132AE
:1003D0003105ECF420915F02FC0190E080E02430D4
:1003E00069F082E00895A091C7012191AC014955BF
:1003F0005E4FA40FB52FB11D2C930196861798F36D
:100400008091C701680F6093C70180E0089581E083
:10041000089510925F0281E080935E02109239028B
:1004200061E082E10E94E90061E083E10E94E9006D
:10043000E9EBF0E080818E7F808380818D7F8083F7
:1004400088E48093B80085E48093BC0008951092FE
:1004500038021092370210926602109288020E94AF
:10046000090287EE90E0909336028093350288EE81
:1004700090E090933402809333020895CF93DF93FA
:1004800091E09093A6018823B9F0C091B800D09173
:10049000BA008091BC008A7B8093BC0060E082E15E
:1004A0000E94E90060E083E10E94E9000E940902E5
:1004B000D093BA00C093B800DF91CF9108958F9286
:1004C0009F92AF92BF92CF92DF92EF92FF920F93E3
:1004D0001F93CF93DF93D0918802D13208F0D7C019
:1004E000182FC09187020E9435016B017C01809119
:1004F0005F0281116BC082E080935F0210935E0205
:100500008FEF80935D0210925C02D0935B02A7E6AE
:10051000B2E0EBE3F2E080E0D81391C010923A022F
:1005200080913A02CC0FC82BC0933A0280913902D5
:10053000813009F088C0109239020E9435016B01A8
:100540007C0180913A028093BB008091610290917E
:100550006202A0916302B0916402892B8A2B8B2BDB
:10056000A1F00E9435010091610210916202209178
:100570006302309164026C197D098E099F09061788
:1005800017072807390708F442C08091BC0083FD93
:10059000D8CF85EC8093BC000E9435016B017C01B3
:1005A00080915F02823009F450C080915D028F3FDC
:1005B00009F46FC080915D02803209F46CC08091B3
:1005C0005D02803309F469C084E026C08091610235
:1005D00090916202A0916302B0916402892B8A2BF0
:1005E0008B2B09F484CF0E9435018090610290909A
:1005F0006202A0906302B09064026C197D098E09BA
:100600009F0986169706A806B90608F070CF809154
:1006100060020E943E0285E01092660210928802FB
:1006200010926502DF91CF911F910F91FF90EF9093
:10063000DF90CF90BF90AF909F908F9008959D9145
:1006400091938F5F69CF85EEA5CF809161029091E4
:100650006202A0916302B0916402892B8A2B8B2BDA
:1006600009F49ECF0E94350100916102109162024F
:1006700020916302309164026C197D098E099F09F3
:10068000061717072807390708F08ACFC0CF81E07F
:10069000C3CF80E0C1CF82E0BFCF83E0BDCF1F9347
:1006A000CF93DF93EA01122FDC0111968D919C917B
:1006B000DC01ED91FC910280F381E02D0995C817D2
:1006C000D90729F4812F0E945F0291E0811190E007
:1006D000892FDF91CF911F910895CF93DF93EC0184
:1006E0008B818823A1F0888191E0909365028093AB
:1006F0008702109266021092880281E00E945F02D7
:1007000091E0811190E0892FDF91CF9108950E94AF
:10071000270281E08B83CE010E946D03982F811107
:10072000E2CFF1CF0895E091380280913702E817C7
:1007300030F4F0E0EF5EFD4F808190E008958FEFA0
:100740009FEF089590913802809137022FEF3FEF8D
:10075000981748F4E92FF0E0EF5EFD4F208130E07C
:100760009F5F90933802C90108958091370290915C
:100770003802891B990B0895CF92DF92EF92FF9276
:100780000F931F93CF93DF937C01CB018A012091BC
:100790006502222389F0EB016B01C40ED51ECC1536
:1007A000DD0569F06991D701ED91FC910190F0812F
:1007B000E02DC7010995F3CF642F0E94E201C80123
:1007C000DF91CF911F910F91FF90EF90DF90CF902D
:1007D0000895CF93DF931F92CDB7DEB76983209141
:1007E00065022223F9F020918802203258F021E09E
:1007F00030E0FC013383228390E080E00F90DF91B2
:10080000CF91089580916602E82FF0E0E959FD4FFD
:10081000998190838F5F809366028093880281E044
:1008200090E0ECCF61E0CE0101960E94E201F7CFAB
:10083000FC01248131E030936502209387021092FD
:100840006602109288028385682B89E892E00E94F4
:10085000E90381E00C945F02CF92DF92EF92FF9266
:100860006B017C0120E030E044EB53E40E943F1335
:10087000181684F020E030E0A901C701B6010E94FB
:10088000B40F87FD10C0C701B601FF90EF90DF9055
:10089000CF90089520E030E044EB53E4C701B60167
:1008A0000E94E910DDCF20E030E044EB53E4C701C3
:1008B000B6010E94EA10D4CF089590E080E0089538
:1008C0006115710579F0FB0101900020E9F731977E
:1008D000AF01461B570BDC01ED91FC910280F381C7
:1008E000E02D099490E080E008958F929F92AF925E
:1008F000BF920F931F93CF93DF93CDB7DEB7A1972E
:100900000FB6F894DEBF0FBECDBF19A2423008F477
:100910004AE08E010F5D1F4F842E912CB12CA12C2B
:10092000A50194010E94EA13E62FB901CA01EA3039
:1009300044F5E05DD801EE938D01232B242B252B6C
:1009400079F790E080E0109769F0FD0101900020B8
:10095000E9F73197AF014A1B5B0BBD0186EA92E0D4
:100960000E948C01A1960FB6F894DEBF0FBECDBFDA
:10097000DF91CF911F910F91BF90AF909F908F907B
:100980000895E95CD7CFCF92DF92EF92FF92CF9399
:10099000DF936C01990FEE08FF08F7FE19C06DE2B6
:1009A00086EA92E00E94B901EC0166277727CB0125
:1009B0006C197D098E099F094AE00E9475048C0F0D
:1009C0009D1FDF91CF91FF90EF90DF90CF90089522
:1009D0004AE0C701B601DF91CF91FF90EF90DF9021
:1009E000CF900C9475042F923F924F925F926F922A
:1009F0007F928F929F92AF92BF92CF92DF92EF92AF
:100A0000FF920F931F93CF93DF9300D000D000D0BD
:100A10001F92CDB7DEB77C01198280903102909091
:100A20003202D40114968D919C911597892B09F46B
:100A300018C18C9191E09093650280938702109287
:100A400066021092880220E041E050E0BE016F5F34
:100A50007F4FC4010E944F03882309F402C1B12CC7
:100A6000A12CA7E02A2E312CF4018481958161010B
:100A7000CA18DB088C159D0508F46C01D4010C9193
:100A80000E9435012B013C0180915F02811173C0EE
:100A90001C2D113208F010E2B1E0B0935F0221E0AA
:100AA000C1018C199D09A816B90608F420E020930D
:100AB0005E02EFEFE0935D0210925C028FEF810F18
:100AC00080935B02F1E0F0933A0280913A02000FCA
:100AD000082B00933A0280913902813009F094C0CA
:100AE000109239020E9435012B013C0180913A029B
:100AF0008093BB008091610290916202A091630299
:100B0000B0916402892B8A2B8B2BA1F00E943501B6
:100B1000209161023091620240916302509164021F
:100B20006419750986099709261737074807590771
:100B300008F442C08091BC0083FDD8CF85EC80933F
:100B4000BC000E9435012B013C0180915F02813085
:100B500009F45EC080915C02811710F410915C0270
:100B6000ABE3B2E0E1E1F2E080E0811751F19D9169
:100B700091938F5FFACF8091610290916202A09170
:100B80006302B0916402892B8A2B8B2B09F47CCFF2
:100B90000E9435012091610230916202409163020E
:100BA0005091640264197509860997092617370759
:100BB0004807590708F068CF809160020E943E0202
:100BC00010E010923802109337021C151D0409F032
:100BD00048C001E010E00C0F1D1F0A0D1B1D38015D
:100BE000C801861997098C159D05A0F5F40181812E
:100BF0009281DC01ED91FC910284F385E02D099551
:100C0000F80181938F01ECCFA5EEA093BC0099CFA2
:100C10008091610290916202A0916302B09164029E
:100C2000892B8A2B8B2B09F490CF0E9435012091C0
:100C30006102309162024091630250916402641932
:100C4000750986099709261737074807590708F0D5
:100C50007CCFB2CFAC0CBD1CF7E0AF16B10408F4EA
:100C600003CFE981EF77FA811B814D815E818F810E
:100C7000282F30E094E0359527959A95E1F7922F4B
:100C8000990F990F291B220F280FD7012C93852F1D
:100C900090E024E0959587952A95E1F7982F990F94
:100CA000990F891B880F850F11968C931197642FCC
:100CB00070E034E0759567953A95E1F7862F880FD7
:100CC000880F681B660F640F12966C931297412F62
:100CD00050E064E0559547956A95E1F7842F880FB9
:100CE000880F481B440F410F13964C9313972F2FD7
:100CF00030E074E0359527957A95E1F7822F880FDB
:100D0000880F281B220F2F0F14962C9314978E2FC9
:100D100090E0F4E095958795FA95E1F7982F990F73
:100D2000990F891B880F8E0F15968C93C7012796F4
:100D30000FB6F894DEBF0FBECDBFDF91CF911F91EC
:100D40000F91FF90EF90DF90CF90BF90AF909F906A
:100D50008F907F906F905F904F903F902F9008956D
:100D60000F931F93CF938C01C62F0E9418046C2FF2
:100D70006460C8010E9418046C2F6B7FC8010E9438
:100D8000180483EC90E00197F1F7CF911F910F9138
:100D900008950F931F93CF93DF938C01D62FC42F09
:100DA000607F642B0E94B00680E1D89FB0011124BF
:100DB0006C2BC801DF91CF911F910F910C94B0065D
:100DC00040E061E080EB92E00E94C9068BE39FE186
:100DD0000197F1F70895CF93DF93CDB7DEB728974A
:100DE0000FB6F894DEBF0FBECDBF98E0E6E0F1E0AD
:100DF000DE01119601900D929A95E1F79091B8025B
:100E0000961708F46FEF262F30E0220F331F41E0D2
:100E100050E04C0F5D1F240F351FF9016081680FF2
:100E2000606840E080EB92E028960FB6F894DEBF51
:100E30000FBECDBFDF91CF910C94C90641E00E9457
:100E4000C90681E090E008958F929F92AF92BF9281
:100E5000CF92DF92EF92FF920F931F93CF93DF9386
:100E60004B018C015A01E9016B017C0120E030E06B
:100E700040EC51E4B601C7010E943F1318160CF470
:100E80004CC020E030E0A901B601C7010E94B40FB8
:100E900087FD4EC0B601C7010E944D120E94171275
:100EA000F50171836083072E000C880B990B0E945B
:100EB000BB0F9B01AC01B401C8010E94E9106B019A
:100EC0007C0120E030E040EC51E40E943F13181612
:100ED000C4F120E030E0A901C701B6010E94B40FBF
:100EE00087FD36C020E030E040E752E4C701B6019C
:100EF0000E941A100E944D120E9417127983688373
:100F0000DF91CF911F910F91FF90EF90DF90CF90E5
:100F1000BF90AF909F908F90089520E030E040EC1C
:100F200051E4B601C7010E94E9106B017C019ECF1C
:100F300020E030E040EC51E4B601C7010E94EA1025
:100F4000F4CF20E030E040EC51E4C701B601B5CF6A
:100F500020E030E040EC51E4C701B6010E94EA1005
:100F6000AECF85ED8093BC008091610290916202CA
:100F7000A0916302B09164020796A11DB11D23E008
:100F8000B695A795979587952A95D1F72091BC009E
:100F900024FD03C010925F020895409161025091B8
:100FA00062026091630270916402452B462B472BCD
:100FB00069F30097A105B10541F02AE22A95F1F7FE
:100FC00000C00197A109B109E1CF809160020C94A2
:100FD0003E021F920F920FB60F9211242F933F9350
:100FE0008F939F93AF93BF938091090290910A02D0
:100FF000A0910B02B0910C023091080223E0230F64
:101000002D3758F50196A11DB11D2093080280933C
:10101000090290930A02A0930B02B0930C028091F4
:101020000D0290910E02A0910F02B0911002019654
:10103000A11DB11D80930D0290930E02A0930F028B
:10104000B0931002BF91AF919F918F913F912F91DB
:101050000F900FBE0F901F90189526E8230F029651
:10106000A11DB11DD2CF1F920F920FB60F92112466
:101070002F933F934F935F936F937F938F939F93A0
:10108000AF93BF93EF93FF938091B900887F803631
:1010900009F44AC0F0F5883209F4A7C018F5803188
:1010A00009F49BC0B8F4882309F4F9C0883009F426
:1010B00094C0FF91EF91BF91AF919F918F917F91DC
:1010C0006F915F914F913F912F910F900FBE0F90B5
:1010D0001F901895883109F488C0803251F78093A9
:1010E0005D0214C0803409F49DC040F48033B9F32C
:1010F0008833F9F680935D0285ECB0C0803509F441
:1011000085C0883509F496C0883499F60E94B107E5
:10111000D0CF883909F48CC038F5883729F050F4DD
:10112000883611F0803729F683E080935F021092B1
:10113000E90157C0883809F47BC0803919F080383C
:1011400009F0B7CF8091E901803208F071C0E091D9
:10115000E90181E08E0F8093E9018091BB00F0E00E
:10116000E753FE4F80833DC0803B39F0E0F4803A86
:1011700009F479C0883A09F09CCF84E080935F023B
:101180001092C8011092C701E0913502F091360229
:1011900009958091C70181110FC081E08093C7013B
:1011A0001092A70109C0803C09F4A6CF883C09F43D
:1011B000A3CF883B09F07DCFE091C80181E08E0F7D
:1011C0008093C801F0E0E955FE4F80818093BB0019
:1011D0009091C8018091C70129C080913A02809303
:1011E000BB0085EC8093BC0064CF90915C02809141
:1011F0005B02981758F5E0915C0281E08E0F8093B6
:101200005C02F0E0E55CFD4F8081E9CFE0915C029B
:1012100081E08E0F80935C028091BB00F0E0E55C82
:10122000FD4F808390915C0280915B029817C8F219
:1012300085E8D8CFE0915C0281E08E0F80935C025C
:101240008091BB00F0E0E55CFD4F808380915E0201
:1012500081115CCF81E08093390284EA8093BC00E5
:1012600010925F0226CF85EC8093BC0010925F0243
:101270008091E901803230F4E091E901F0E0E75338
:10128000FE4F10826091E90170E0E0913302F0912D
:10129000340289EC91E009951092E9010ACF10928D
:1012A0005D0234CFE9E8F2E01382128288EE93E027
:1012B000A0E0B0E084839583A683B78382E191E0C8
:1012C00091838083E0EBF2E01382128284E291E06A
:1012D0009183808380E2848380E1818782E08287BA
:1012E0001386E6EAF2E01382128280E391E09183B2
:1012F0008083A5E9B2E0B583A48381E190E0918782
:101300008087B783A6831C920895CF93DF93CDB7D0
:10131000DEB7A6970FB6F894DEBF0FBECDBF7894A8
:1013200084B5826084BD84B5816084BD85B58260EA
:1013300085BD85B5816085BD80916E00816080939B
:101340006E00109281008091810082608093810004
:101350008091810081608093810080918000816014
:10136000809380008091B10084608093B10080916F
:10137000B00081608093B00080917A008460809397
:101380007A0080917A00826080937A0080917A005E
:10139000816080937A0080917A00806880937A00DF
:1013A0001092C1000E9427021092B5028091BA02E9
:1013B000823018F098E09093B5028093B80262E30F
:1013C00070E080E090E00E945A016091BB0280EBE7
:1013D00092E00E94180468EE73E080E090E00E94C2
:1013E0005A0160E380EB92E00E94B0060BE416E441
:1013F000C8010197F1F760E380EB92E00E94B0062C
:10140000C8010197F1F760E380EB92E00E94B0061B
:1014100083E592E00197F1F760E280EB92E00E94B1
:10142000B0066091B502606240E080EB92E00E94FD
:10143000C90604E00093B60240E06CE080EB92E065
:101440000E94C9060E94E00682E08093B70240E055
:1014500066E080EB92E00E94C90640E062E080EB2B
:1014600092E00E94C9068BE39FE10197F1F788E0C3
:101470008093BB0260E080EB92E00E9418040E941F
:10148000E0060E94270281E491E00E94D501182F16
:101490008CE391E00E94D501F82E84E491E00E9453
:1014A000D501E82E87E491E00E94D501D82E8AE488
:1014B00091E00E94D501382FFE01319686E0DF01D0
:1014C0001D928A95E9F72AE0832F622F0E94CA13A2
:1014D000982F880F890F880F830F8A838D2D0E9484
:1014E000CA13982F880F890F880F8D0D8B838E2D2F
:1014F0000E94CA13982F880F890F880F8E0D8C8336
:101500008F2D0E94CA13982F880F890F880F8F0D77
:101510008E830F83812F0E94CA13982F880F890F03
:10152000880F810F88878091310290913202DC010F
:1015300014962D913C9115972830310580F02C910F
:1015400031E0309365022093870210926602109278
:10155000880221E048E050E0BF010E944F038091E3
:10156000310290913202009711F00E94C21486E07D
:1015700090E00E9426148C01F8E6FF2EFC01F08218
:1015800089E892E092838183138280E290E09583E0
:10159000848310933202009331020E942702EE24CA
:1015A000E394D8011396EC92C8010E946D03E09277
:1015B0006502F0928702109266021092880267E03C
:1015C00089E892E00E94E90360E189E892E00E94E4
:1015D000E90381E00E945F02CE0109960E94F304B4
:1015E00010E000E0D12CC12C0F5F1F4FCE010196FF
:1015F0000E94F304EC80F12CF0920702E0920602C4
:101600008D8190E090930502809304028E8190E09A
:1016100090930302809302020E94D700BAE0EB1677
:10162000F10424F490E080E00E94C304809106025B
:10163000909107020E94C30460E084E00E94EB06E0
:101640006091AA027091AB0280EB92E00E9460046C
:101650000E94D7006DE471E086EA92E00E94600487
:1016600060E086E00E94EB066091AA027091AB02F6
:1016700080EB92E00E9460040E94D70080910402F7
:10168000909105020A9724F490E080E00E94C30440
:1016900080910402909105020E94C30460E087E0FB
:1016A0000E94EB066091AA027091AB0280EB92E07F
:1016B0000E9460040E94D7006DE471E086EA92E027
:1016C0000E94600460E089E00E94EB066091AA023B
:1016D0007091AB0280EB92E00E9460040E94D70000
:1016E00080910202909103020A9724F490E080E036
:1016F0000E94C30480910202909103020E94C304DD
:1017000060E08AE00E94EB066091AA027091AB0251
:1017100080EB92E00E9460040834110529F4EFEF99
:10172000CE1ADE0A10E000E0F5E0CF16D10409F091
:101730005BCF0E94E006312C212C0F5F1F4FCE01A2
:1017400001960E94F304EA80F12C298130E02053B5
:10175000384FC70109966CE070E00E94D613620F03
:10176000731FCB01E3E0880F991FEA95E1F7681B2F
:10177000790B77FF02C06D5F7F4F75956795759503
:1017800067954FE651E0249FC001259F900D349F3F
:10179000900D1124680F791F072E000C880B990BF0
:1017A0000E94BB0F4B015C01A3E1B1E0EA9EC001C6
:1017B000EB9E900DFA9E900D112469E070E00E945E
:1017C000D613CB016B81680F792F711D072E000C8A
:1017D000880B990B0E94BB0F28E33AE542E359E4DA
:1017E0000E94E9109B01AC01C501B4010E94EA10FE
:1017F0006B017C0123E633E54CE75FE30E941A109E
:101800006F8B788F898F9A8F22E03BE34CE853E40B
:101810000E94EA100E942C046B8B7C8B8D8B9E8B1C
:101820002DE430E54CE75FE3C701B6010E941A10D2
:1018300026E933EC42EB53E40E94EA100E942C04A8
:101840004B015C0125E33AEF4EE85CE30E941A107D
:101850000E944C132B013C01A5019401C501B40168
:101860000E94EA1025E33AEF4EE85CE30E941A106A
:101870000E944C134B015C0128EB3EE145EF5FE316
:10188000C301B2010E941A102B893C894D895E89DF
:101890000E94EA102B013C012AE037ED43EA5CE3A9
:1018A000C501B4010E941A109B01AC01C301B20131
:1018B0000E94EA100E942C044B015C0125E93FEBD9
:1018C00046ED54E3C701B6010E941A109B01AC011A
:1018D00062E173E88BEB91E40E94E91025E33AEFB3
:1018E0004EE85CE30E941A106B017C010E94A0117B
:1018F0002B013C0125E33AEF4EE85CE3C501B4015E
:101900000E941A106B8B7C8B8D8B9E8B0E949E137A
:101910009B01AC01C301B2010E941A100E94711117
:1019200022EE3EE245E652E40E941A100E942C0488
:101930002B013C0120E030E044EB53E40E94A51170
:101940000E941712E8E6F1E0E69F9001E79F300D54
:10195000F69F300D1124B901330F880B990B0E94AB
:10196000BB0F9B01AC01C301B2010E94E9106B8F58
:101970007C8F8D8F9E8F20E030E044EB52E4C501D8
:10198000B4010E94A5110E944D124B015C0120E0A0
:1019900030E044EB52E46B8D7C8D8D8D9E8D0E94EA
:1019A000A5110E944D126BA37CA38DA39EA3C7011A
:1019B000B6010E944C136B017C016B897C898D8977
:1019C0009E890E944C139B01AC01C701B6010E9485
:1019D0001A100E94561122EE3EE245E652E40E94A1
:1019E0001A106B8B7C8B8D8B9E8B25E33AEF4EE828
:1019F0005CE30E941A106B017C010E944C132DEFD6
:101A000037E742E05EEB0E941A102B013C01C70150
:101A1000B6010E94A01122EE39EE4DE75FE30E946D
:101A20001A106B017C01A301920166E177E48EE656
:101A30009CEB0E94E910A70196010E94A5110E944B
:101A4000D81022EE3EE245E652E40E941A106F8F53
:101A500078A389A39AA32BA13CA14DA15EA1C501A6
:101A6000B4010E94E91020E030E044EB52E40E940F
:101A70001A102B8D3C8D4D8D5E8D0E94EA104B010E
:101A80005C0125E83BEE48EC52E46F89788D898D46
:101A90009A8D0E94EA109B01AC01C501B4010E941D
:101AA000E9100E942C0420E030E04DED52E40E9449
:101AB000E91020E030E040E751E40E94A51120E069
:101AC00030E040EE50E40E94EA104B015C0180924D
:101AD000F6019092F701A092F801B092F9012B89DA
:101AE0003C894D895E8961E77DE38AEE90EC0E9436
:101AF000E91025E33AEF4EE85CE30E941A100E94D9
:101B00009E132AE939E949ED5FE30E94EA100E9439
:101B1000711122EE3EE245E652E40E941A1023E3E0
:101B200033E34BE651E40E94A511A50194010E9404
:101B3000EA106093F2017093F3018093F4019093A3
:101B4000F50120E030E040E751E46F8D78A189A1F4
:101B50009AA10E94A5119B01AC01C501B4010E948C
:101B6000E9106093FA017093FB018093FC0190935C
:101B7000FD0123E333E34BE651E46F8D78A189A1A6
:101B80009AA10E94A511A50194010E94EA106093F8
:101B9000EE017093EF018093F0019093F101A301A6
:101BA00092016AE777E38EE99EEB0E94E910A701B4
:101BB00096010E94A5110E94D81022EE3EE245E651
:101BC00052E40E941A1020E030E040E751E40E9405
:101BD000A511A50194010E94EA106093EA01709397
:101BE000EB018093EC019093ED01A301920163E47A
:101BF0007DE18FEA9EEB0E94E910A70196010E9409
:101C0000A5110E94D81022EE3EE245E652E40E9461
:101C10001A1020E030E040E751E40E94A5119B013A
:101C2000AC01C501B4010E94E9106093FE017093FC
:101C3000FF0180930002909301028C8190E09A8BC7
:101C4000898B8D8190E090930502809304028E81B0
:101C500090E090930302809302020E94D70089894A
:101C60009A890A9724F490E080E00E94C30489894D
:101C70009A890E94C30460E080E00E94EB066091B4
:101C8000AA027091AB0280EB92E00E9460040E9475
:101C9000D7006DE471E086EA92E00E94600460E0A3
:101CA00082E00E94EB066091AA027091AB0280EB89
:101CB00092E00E9460040E94D700809104029091FB
:101CC00005020A9724F490E080E00E94C30480910A
:101CD0000402909105020E94C30460E083E00E9428
:101CE000EB066091AA027091AB0280EB92E00E9439
:101CF00060040E94D7006DE471E086EA92E00E94E1
:101D0000600460E085E00E94EB066091AA02709199
:101D1000AB0280EB92E00E9460040E94D7008091A9
:101D20000202909103020A9724F490E080E00E945E
:101D3000C30480910202909103020E94C30460E0F8
:101D400086E00E94EB066091AA027091AB0280EBE4
:101D500092E00E946004F0E22F1631040CF474C08B
:101D60006091EA017091EB018091EC019091ED019D
:101D70009E01215F3F4FAE014F5E5F4F0E942407DF
:101D8000EE24E394F12C0E94D70089899A890A975E
:101D900034F46FE471E086EA92E00E94600489897D
:101DA0009A890E94C30460E08BE00E94EB06609178
:101DB000AA027091AB0280EB92E00E9460040E9444
:101DC000D7006DE471E086EA92E00E94600460E072
:101DD0008DE00E94EB066091AA027091AB0280EB4D
:101DE00092E00E9460040E94D7008F8598890A972C
:101DF00034F46FE471E086EA92E00E9460048F851B
:101E000098890E94C30460E08EE00E94EB06609116
:101E1000AA027091AB0280EB92E00E9460040E94E3
:101E2000D70063E771E053E0E516F10409F475C0EB
:101E30000CF066C062E671E0A2E0EA16F10409F473
:101E40006CC061E571E069C028E122163104A4F09C
:101E50006091EE017091EF018091F0019091F1019C
:101E60009E01215F3F4FAE014F5E5F4F0E942407EE
:101E700032E0E32EF12C87CF30E123163104A4F0B9
:101E80006091F2017091F3018091F4019091F5015C
:101E90009E01215F3F4FAE014F5E5F4F0E942407BE
:101EA00023E0E22EF12C6FCF48E024163104A4F099
:101EB0006091F6017091F7018091F8019091F9011C
:101EC0009E01215F3F4FAE014F5E5F4F0E9424078E
:101ED00094E0E92EF12C57CF6091FE017091FF0143
:101EE00080910002909101029E01215F3F4FAE015F
:101EF0004F5E5F4F0E94240785E0E82EF12C43CF10
:101F000064E871E0B4E0EB16F10439F065E971E0E2
:101F1000E5E0EE16F10409F094CF86EA92E00E9423
:101F2000600461E080E00E94EB066091AA0270917B
:101F3000AB0280EB92E00E9460040A30110529F4A4
:101F4000FFEF2F1A3F0A10E000E028E222163104CA
:101F500009F0F3CB0E94E00680E090E0892B09F4C1
:101F60003BCB0E94000038CB0E94F60F08F481E0C2
:101F70000895E89409C097FB3EF49095809570957C
:101F800061957F4F8F4F9F4F9923A9F0F92F96E9C5
:101F9000BB279395F695879577956795B795F1113A
:101FA000F8CFFAF4BB0F11F460FF1BC06F5F7F4FD7
:101FB0008F4F9F4F16C0882311F096E911C07723E9
:101FC00021F09EE8872F762F05C0662371F096E8F2
:101FD000862F70E060E02AF09A95660F771F881FC1
:101FE000DAF7880F9695879597F90895990F000865
:101FF000550FAA0BE0E8FEEF16161706E807F907DB
:10200000C0F012161306E407F50798F0621B730B75
:10201000840B950B39F40A2661F0232B242B252BF6
:1020200021F408950A2609F4A140A6958FEF811D99
:10203000811D08950E942D100C949E100E949010F6
:1020400038F00E94971020F0952311F00C9487101F
:102050000C948D1011240C94D2100E94AF1070F3C8
:10206000959FC1F3950F50E0551F629FF001729F3D
:10207000BB27F00DB11D639FAA27F00DB11DAA1F4C
:10208000649F6627B00DA11D661F829F2227B00D99
:10209000A11D621F739FB00DA11D621F839FA00D24
:1020A000611D221F749F3327A00D611D231F849F74
:1020B000600D211D822F762F6A2F11249F575040CB
:1020C0009AF0F1F088234AF0EE0FFF1FBB1F661F46
:1020D000771F881F91505040A9F79E3F510580F00F
:1020E0000C9487100C94D2105F3FE4F3983ED4F325
:1020F000869577956795B795F795E7959F5FC1F7B3
:10210000FE2B880F911D9695879597F9089597F95D
:102110009F6780E870E060E008959FEF80EC08958D
:1021200000240A94161617061806090608950024B6
:102130000A9412161306140605060895092E039430
:10214000000C11F4882352F0BB0F40F4BF2B11F4A4
:1021500060FF04C06F5F7F4F8F4F9F4F089557FD03
:102160009058440F551F59F05F3F71F04795880F05
:1021700097FB991F61F09F3F79F08795089512169C
:1021800013061406551FF2CF4695F1DF08C0161648
:1021900017061806991FF1CF8695710561050894F9
:1021A0000895E894BB2766277727CB0197F9089510
:1021B0009F939F770E9464120F90002042F49058E2
:1021C000A2EA2AED3FE049E450E40E9401110C9498
:1021D0009E105058BB27AA270E9401110C949E10F4
:1021E0000E94901038F00E94971020F039F49F3F21
:1021F00019F426F40C948D100EF4E095E7FB0C9482
:102200008710E92F0E94AF1058F3BA1762077307BF
:102210008407950720F079F4A6F50C94D1100EF4FC
:10222000E0950B2EBA2FA02D0B01B90190010C01E6
:10223000CA01A0011124FF27591B99F0593F50F4FE
:10224000503E68F11A16F040A22F232F342F442756
:10225000585FF3CF469537952795A795F04053954E
:10226000C9F77EF41F16BA0B620B730B840BBAF01E
:102270009150A1F0FF0FBB1F661F771F881FC2F789
:102280000EC0BA0F621F731F841F48F4879577959D
:102290006795B795F7959E3F08F0B0CF9395880F57
:1022A00008F09927EE0F9795879508959F939F774C
:1022B000EEE389379E0728F4E8E6F0E00E94D412A6
:1022C0000CC00E9464129058A2EA2AED3FE049EC4B
:1022D0005FE30E9401110E949E100F9007FC90582E
:1022E0000895DF93DD27B92FBF7740E85FE3161627
:1022F000170648075B0718F4D92F0E9444139F93D1
:102300008F937F936F930E949A13ECE7F0E00E9403
:10231000AD120E949E102F913F914F915F910E94AC
:102320002D10DD2351F09058A2EA2AED3FE049EC50
:102330005FE3D0785D270E940111DF910C949E101D
:102340000E94EA12E3950C9413130E94B9110C94A5
:102350009E100E94971058F00E94901040F029F4AF
:102360005F3F29F00C94871051110C94D2100C94FB
:102370008D100E94AF1068F39923B1F3552391F3A8
:10238000951B550BBB27AA2762177307840738F0E4
:102390009F5F5F4F220F331F441FAA1FA9F335D041
:1023A0000E2E3AF0E0E832D091505040E695001CF5
:1023B000CAF72BD0FE2F29D0660F771F881FBB1FAF
:1023C000261737074807AB07B0E809F0BB0B802D8D
:1023D000BF01FF2793585F4F3AF09E3F510578F0B9
:1023E0000C9487100C94D2105F3FE4F3983ED4F322
:1023F000869577956795B795F7959F5FC9F7880F8D
:10240000911D9695879597F90895E1E0660F771FDE
:10241000881FBB1F621773078407BA0720F0621B6F
:10242000730B840BBA0BEE1F88F7E09508950E949A
:102430001E126894B1110C94D21008950E94B71026
:1024400088F09F5798F0B92F9927B751B0F0E1F075
:10245000660F771F881F991F1AF0BA95C9F714C025
:10246000B13091F00E94D110B1E008950C94D110D8
:10247000672F782F8827B85F39F0B93FCCF386955E
:1024800077956795B395D9F73EF4909580957095BB
:1024900061957F4F8F4F9F4F08950E94271390F0B3
:1024A0009F3748F4911116F00C94D21060E070E060
:1024B00080E89FEB089526F41B16611D711D811D98
:1024C0000C9484120C949F12DF93CF931F930F935D
:1024D0008B01EC01E9EAF0E00E94AD120E949E102F
:1024E0009801AE018B01EC0160E070E080E89FE3B1
:1024F0000E94E9100E945A139801AE010F911F919A
:10250000CF91DF910C942D10882371F4772321F063
:102510009850872B762F07C0662311F499270DC09A
:102520009051862B70E060E02AF09A95660F771F35
:10253000881FDAF7880F9695879597F908959F3F3A
:1025400031F0915020F4879577956795B795880F6E
:10255000911D9695879597F90895DF93CF931F93D3
:102560000F93FF92EF92DF927B018C01689406C07B
:10257000DA2EEF010E942D10FE01E894A59125911D
:10258000359145915591A6F3EF010E940111FE018D
:102590009701A801DA9469F7DF90EF90FF900F910F
:1025A0001F91CF91DF9108959F938F937F936F93A6
:1025B000FF93EF939B01AC010E941A10EF91FF91E2
:1025C0000E94AD122F913F914F915F910C941A1080
:1025D0000C948D100E94B710D8F3E894E0E0BB276C
:1025E0009F57F0F02AED3FE049EC06C0EE0FBB0F1D
:1025F000661F771F881F28F0B23A620773078407A7
:1026000028F0B25A620B730B840BE3959A9572F71C
:10261000803830F49A95BB0F661F771F881FD2F75A
:1026200090480C94A112EF93E0FF07C0A2EA2AEDB4
:102630003FE049EC5FEB0E9401110E949E100F9059
:10264000039401FC9058E1EDF0E00C94D4120E9448
:10265000B710A0F0BEE7B91788F4BB279F3860F425
:102660001616B11D672F782F8827985FF7CF8695AC
:1026700077956795B11D93959639C8F308950E9493
:10268000F60F08F48FEF08959B01AC0160E070E055
:1026900080E89FE30C94A5119F930E94EA120F908B
:1026A00007FCEE5F0C94131319F416F40C948D10C0
:1026B0000C949F120E94B710B8F39923C9F3B6F394
:1026C0009F57550B87FF0E94C3130024A0E640EAE2
:1026D000900180585695979528F4805C660F771F77
:1026E000881F20F026173707480730F4621B730B4A
:1026F000840B202931294A2BA6951794079420256D
:1027000031254A2758F7660F771F881F20F02617B4
:102710003707480730F4620B730B840B200D311D13
:10272000411DA09581F7B901842F9158880F969586
:10273000879508959B01AC010C941A10DF93D92F53
:102740000E94EA12E695D7952AED3FE049E45FE35F
:10275000B33A6207730784079507D7953AF0A2EA60
:1027600049EC90680E9401110E949E10EFEEF0E08B
:102770000E94D412DD0F13F00E944413DD0F0BF4FE
:102780009058DF91089591505040660F771F881F31
:10279000D2F70895991B79E004C0991F961708F0A5
:1027A000961B881F7A95C9F78095089597FB072E89
:1027B00016F4009407D077FD09D00E940C1407FC92
:1027C00005D03EF4909581959F4F08957095619541
:1027D0007F4F0895A1E21A2EAA1BBB1BFD010DC05D
:1027E000AA1FBB1FEE1FFF1FA217B307E407F507C1
:1027F00020F0A21BB30BE40BF50B661F771F881F9D
:10280000991F1A9469F760957095809590959B0132
:10281000AC01BD01CF010895AA1BBB1B51E107C04C
:10282000AA1FBB1FA617B70710F0A61BB70B881F60
:10283000991F5A95A9F780959095BC01CD010895EF
:10284000EE0FFF1F0590F491E02D09940F931F9355
:10285000CF93DF938230910510F482E090E0E09115
:10286000BE02F091BF0230E020E0B0E0A0E030977F
:1028700099F42115310509F44AC0281B390B24307D
:102880003105D8F58A819B816115710589F1FB01BC
:1028900093838283FE0111C04081518102811381A3
:1028A00048175907E0F04817590799F4109761F055
:1028B00012960C93129713961C933296CF01DF91C8
:1028C000CF911F910F9108950093BE021093BF0204
:1028D000F4CF2115310551F04217530738F0A90103
:1028E000DB019A01BD01DF01F801C1CFEF01F9CF92
:1028F0009093BF028093BE02CDCFFE01E20FF31F83
:10290000819391932250310939832883D7CF209125
:10291000BC023091BD02232B41F420910201309181
:1029200003013093BD022093BC022091000130913D
:1029300001012115310541F42DB73EB74091040145
:1029400050910501241B350BE091BC02F091BD02B2
:10295000E217F307A0F42E1B3F0B2817390778F076
:10296000AC014E5F5F4F2417350748F04E0F5F1FD5
:102970005093BD024093BC02819391939FCFF0E0AE
:10298000E0E09CCFCF93DF930097E9F0FC01329712
:1029900013821282A091BE02B091BF02ED0130E01D
:1029A00020E01097A1F420813181820F931F2091A4
:1029B000BC023091BD022817390709F061C0F093BD
:1029C000BD02E093BC02DF91CF910895EA01CE17DA
:1029D000DF07E8F54A815B819E0141155105B1F79A
:1029E000E901FB83EA8349915991C40FD51FEC1784
:1029F000FD0761F4808191810296840F951FE901A2
:102A000099838883828193819B838A83F0E0E0E0CD
:102A100012968D919C9113970097B9F52D913C9149
:102A20001197CD010296820F931F2091BC02309125
:102A3000BD022817390739F6309751F51092BF02B9
:102A40001092BE02B093BD02A093BC02BCCFD38350
:102A5000C28340815181840F951FC817D90761F443
:102A60004E5F5F4F88819981480F591F5183408382
:102A70008A819B81938382832115310509F0B0CF30
:102A8000F093BF02E093BE029ECFFD01DC01C0CFF8
:102A900013821282D7CFF894FFCF0000C0028000CB
:102AA000000040001400540000000000E903BC03D3
:102AB0005D049203B503A2039303000000001E0708
:102AC0008C015D045C0400000000B9018C015D0410
:102AD0005C0441707220313820323032340031339E
:102AE0003A33353A3031003A00300020202020209F
:102AF0002020202020202049535941002020202040
:102B000020202020204D41474852494200202020CB
:102B10002020202020202020415348415200202006
:102B20002020202020202020445A554855520020A3
:102B300020202020202020202053485542554800A6
:107E0000112484B714BE81FFF0D085E080938100F7
:107E100082E08093C00088E18093C10086E0809377
:107E2000C20080E18093C4008EE0C9D0259A86E02C
:107E300020E33CEF91E0309385002093840096BBD3
:107E4000B09BFECF1D9AA8958150A9F7CC24DD24C4
:107E500088248394B5E0AB2EA1E19A2EF3E0BF2EE7
:107E6000A2D0813461F49FD0082FAFD0023811F036
:107E7000013811F484E001C083E08DD089C08234E0
:107E800011F484E103C0853419F485E0A6D080C0E4
:107E9000853579F488D0E82EFF2485D0082F10E0AE
:107EA000102F00270E291F29000F111F8ED06801E7
:107EB0006FC0863521F484E090D080E0DECF843638
:107EC00009F040C070D06FD0082F6DD080E0C81688
:107ED00080E7D80618F4F601B7BEE895C0E0D1E017
:107EE00062D089930C17E1F7F0E0CF16F0E7DF06D8
:107EF00018F0F601B7BEE89568D007B600FCFDCFD4
:107F0000A601A0E0B1E02C9130E011968C91119780
:107F100090E0982F8827822B932B1296FA010C0160
:107F200087BEE89511244E5F5F4FF1E0A038BF0790
:107F300051F7F601A7BEE89507B600FCFDCF97BE46
:107F4000E89526C08437B1F42ED02DD0F82E2BD052
:107F50003CD0F601EF2C8F010F5F1F4F84911BD097
:107F6000EA94F801C1F70894C11CD11CFA94CF0C13
:107F7000D11C0EC0853739F428D08EE10CD085E9AC
:107F80000AD08FE07ACF813511F488E018D01DD067
:107F900080E101D065CF982F8091C00085FFFCCF94
:107FA0009093C60008958091C00087FFFCCF809118
:107FB000C00084FD01C0A8958091C6000895E0E648
:107FC000F0E098E1908380830895EDDF803219F02E
:107FD00088E0F5DFFFCF84E1DECF1F93182FE3DFCA
:107FE0001150E9F7F2DF1F91089580E0E8DFEE27F6
:047FF000FF270994CA
:027FFE00040479
:00000001FF
